:1000000005308A00162D00000A108A100A11820796
:1000100028340C34013406348C29E931E135EC34D0
:10002000EB1EA012E6210000383084008313000884
:10003000031928280130F800F701F70B1D28F80BE9
:100040001C284A30F700F70B23282628800B1A2893
:1000500008003F0EF039F7000F30060577048600E0
:10006000000006143328061008000608F700060EE4
:100070000F39F80008008316061086100611831247
:1000800086100F3083160605F03886008312061599
:1000900000000614000035207808BF00061000009C
:1000A0000614000035207808BE0006100F308316B5
:1000B0000605860083123F0EF700F030F70577083B
:1000C0003E04F8007808BE00BE1B41283C1C861088
:1000D0003C18861400000611000006103D0EBE00FC
:1000E0000F30BE053E08BF0029203D080F39BE0075
:1000F000BF00292008000F30831606058600061071
:100100008610061183128610061106100F30B800F3
:1001100014200130AA002A08033C031C972803304E
:10012000BF0029200530B8001420AA0A8B2802300D
:10013000BF0029200530B8001420AA012A08033C7A
:10014000031CAB282A080420AB00BC012B08BD000F
:100150003B20AA0A9E288A110A12322D8E30F700FF
:100160002B08F8002A08F900FA01F808031DC22834
:100170007908F800F9010830F702F808031DC228D1
:10018000F701CA280310F81BC928F90DF80DF70369
:10019000C228F8138A110A12572D370803193D296E
:1001A000BF003B0803193D29BF070318DE287F3035
:1001B000BF02031C3D2903193D29E2288130BF07F6
:1001C00003183D293F08F700F801F901FA01380842
:1001D000C300C3173908C2003A08C1001830BF0075
:1001E000C001411C0B293E08FA07031CFD28F90A2F
:1001F000031DFD28F80A0319C0173D08F907031C61
:100200000429F80A0319C0173C08B900B9173908BE
:10021000F8070318C017C00DF80CF90CFA0CC30C42
:10022000C20CC10C0310BF0BF0280130F7070318F4
:100230003D29F81B2229C30DFA0DF90DF80DF7031E
:1002400003193D29C31F3329FA0A031D3329F90A6B
:10025000031D3329F80A031D3329F80CF90CFA0C95
:10026000F70A03193D293808C0003C08C006C01F22
:100270003B29F8174129F8134129F701F801F90141
:10028000FA0108002A080319072AB6002E080319E4
:10029000072AB602031C51297F30B6070318072A24
:1002A00057298130B602031C072A0319072A36088A
:1002B000F700F801F901FA01B5012B08B400B417F1
:1002C0002C08B3002D08B2001930B6003108B20274
:1002D00003187A290130B30203187A29B4020318EB
:1002E0007A29B50203187A29B50AB40AB30A310883
:1002F000B207AC293008B302031895290130B402C3
:1003000003189529B50203189529B50AB40A3008CF
:10031000B3073108B207031CAC29B30A031DAC298B
:10032000B40A031DAC29B50AAC292F088038B402E1
:100330000318AB290130B5020318AB29B50A2F0801
:100340008038B4073008B307031C8929B40A031D99
:100350008929B50A89297A14B60BAF29BA2903105D
:10036000B20DB30DB40DB50D0310FA0DF90DF80D66
:10037000B70D6629371CC2290310F80CF90CFA0CCA
:10038000B70CC529F7030319072AB71BEE29031079
:10039000B20DB30DB40DB50D3108B2020318DA2950
:1003A0000130B3020318DA29B4020318DA29B502BE
:1003B000031CFD293008B3020318E5290130B402FB
:1003C0000318E529B502031CFD292F088038B40263
:1003D0000318EE290130B502031CFD29FA0A031D9A
:1003E000FD29F90A031DFD29F80A031DFD29F70A55
:1003F0000319072AF80CF90CFA0C2B08B6002F0881
:10040000B606B61F052AF8170B2AF8130B2AF701B0
:10041000F801F901FA018A110A127F2D8030831840
:10042000B306B801B9012F08B7003308B7062E0884
:100430000319FE2AB600F70032080319072BB6028B
:100440000319A32A031C612A3308BC00BC17340813
:10045000BB003508BA00B9010310BC0CBB0CBA0CC8
:10046000B90CB60B2B2AB71F382A38141B2B38109F
:1004700036103816313084008313302B3812B71BF6
:100480004B2A361C562ABC0CBB0CBA0CB90CF70A0A
:100490000319162B562ABC1B592A0310B90DBA0D85
:1004A000BB0DBC0DF7030319162B4B2A3817C32AB3
:1004B00038132F08B700B71F5F2ABC170F2BBC13C8
:1004C0000F2B3208B600F7002E08B6022F08BC002A
:1004D000BC173008BB003108BA00B9010310BC0CCE
:1004E000BB0CBA0CB90CB60B6D2AB71F7A2AB8141C
:1004F0001B2BB8103610B816353084008313302B00
:10050000B812B71B8D2A361C982ABC0CBB0CBA0C2F
:10051000B90CF70A0319162B982ABC1B9B2A031047
:10052000B90DBA0DBB0DBC0DF7030319162B8D2A9F
:10053000B817C32AB8133308B700B71FA12ABC17CE
:100540000F2BBC130F2B3308BC00BC173408BB00A7
:100550003508BA00B71FB02ABC1338151B2B381149
:10056000B9013610313084008313302BB71BD92AE0
:100570002F08B700361CC32ABC0CBB0CBA0CB90C34
:10058000F70A0319162BB91FD42ABA0A031DD42A55
:10059000BB0A031DD42ABC0A031DD42ABC0CBB0C05
:1005A000BA0CF70A0319162B381B582AB81B9A2ABB
:1005B000F82A8030BC06BC1FE12A1B2B3308B70089
:1005C000EE2A2F08B700BC08031DEE2ABB08031D46
:1005D000EE2ABA08031DEE2AF7010F2BBC1BF82ADE
:1005E0000310B90DBA0DBB0DBC0DF70BEE2A162B7F
:1005F000B71FFC2ABC170F2BBC130F2B3208F700B8
:100600003308BC003408BB003508BA000F2B2E0895
:10061000F7002F08BC003008BB003108BA003C08C6
:10062000F8003B08F9003A08FA004E2BF701F801F0
:10063000F901FA014E2BB901BA09BB09BC09B90984
:10064000B90A031D292BBA0A031D292BBB0A03195A
:10065000BC0A3818372AB818792A3819AF2ADE2A7E
:100660000008BA07031C3A2BBB0A031D3A2BBC0A2D
:100670000319361484030008BB07031C422BBC0A71
:100680000319361484030008801F803ABC0703183E
:100690003614381A3E2AB81A802AB62A8A110A1243
:1006A000962D390B542B572B4030BA00582BBA01DA
:1006B00001303802BA073A088038BB00BC013B0859
:1006C000BD003B2008003708073A0319712B0B3A8D
:1006D0000319762B063A03197E2B023A0319842B51
:1006E000892B0130B800B90051238E2BBC01013099
:1006F000BD003B200230B80014208E2B0130B80022
:100700000230B90051238E2BBC011030BD003B20BC
:100710008E2B0130BC003708BD003B2008000B08C1
:10072000AB008B13831603178C170C14000000000A
:100730000318C12B83120C087F390313AC00031775
:100740000D080313AD0003170F080313AE002C08A8
:10075000B70063232D0803178D0003132E0803171A
:100760008F0083168C170C140000000083120313F3
:10077000AA0BBB2BBE2B83160317C12BE02B8316B2
:10078000031783120C0D0E0D7F390313AC000317F2
:100790000D080313AD0003170F080313AE002C0858
:1007A000B70063232D0803178D0003132E080317CA
:1007B0008F008D0A03198F0A03100313AA0B922BC3
:1007C000AB1B8B178A110A12A82D8318EA2B3F3016
:1007D00084008313F701F801F901FA01BF01C00198
:1007E000C101C2013E083D043C043B040319282C0E
:1007F0002030C3000310B70DB80DB90DBA0DBF0DF1
:10080000C00DC10DC20D3E084202031D112C3D0852
:100810004102031D112C3C084002031D112C3B0812
:100820003F02031C222C3B08BF023C08031C3C0F68
:10083000C0023D08031C3D0FC1023E08031C3E0FD1
:10084000C2020314F70DF80DF90DFA0DC30BFA2BC4
:100850003F088000840A40088000840A4108800024
:10086000840A4208800008000408AF002E08B10086
:100870000319532C2D08BA002C08B9002B08B80016
:100880002A08B700BE01BD012030BC008230BB0089
:10089000CD207A08AD007908AC007808AB00770865
:1008A000AA00B10B3A2C2D08BA002C08B9002B086D
:1008B000B8002A08B7003708B63CB700FA01380874
:1008C000BB00B8170310B80CB90CBA0CFA0CF90C31
:1008D000F80CF70CB70B622CBB1F792CF709F80941
:1008E000F909FA09F70A0319F80A0319F90A0319A9
:1008F000FA0A7A08AD007908AC007808AB007708EE
:10090000AA00AD1F902CAF03AF16AA09AB09AC0922
:10091000AD09AA0A0319AB0A0319AC0A0319AD0AF7
:100920003B30B6009A30B500CA30B400B3010A308B
:10093000B1002E080319AF0A83142A3084008313F0
:100940002D08BA002C08B9002B08B8002A08B700F7
:100950003608BE003508BD003408BC003308BB00B3
:10096000E5237808F708031DC82C2E0A3102031965
:10097000C82C2F080319CA2C0F3931020319C22CB5
:100980000318FA2CAF1BFA2C2F1BCA2C2030F62C84
:100990002030AF05AF1ED82CAF122E08031DAF03B9
:1009A0007708AF002D30B70063232F08F700AF01A1
:1009B0002E083102031DE62C7708AF002E30B70059
:1009C00063232F08F7002030AF0500303030AF1E12
:1009D000F62CAF122E08031DAF037708AF002D30A1
:1009E000B70063232F08F700AF013030F70777080F
:1009F000B700632383103608BA003508B9003408FD
:100A0000B8003308B700BE01BD01BC010A30BB000D
:100A1000E5237A08B6007908B5007808B4007708AD
:100A2000B300B10B9C2C8A110A12B52D83161F142A
:100A30009F141F159F1183131F3083050912831202
:100A400090010030F8009200003083169200F030E0
:100A5000831297059D05203083168500003086009F
:100A600083127B281F139F1783169F1783121F144F
:100A700083161F109F101F119F112030F800831242
:100A80001F08C73978049F000630F700F70B462D82
:100A900000001F151F194A2D83161E088312A0007F
:100AA0001E08A1002108AB002008AA00AE287A0881
:100AB000BA007908B9007808B8007708B700233081
:100AC000BE006730BD001C30BC008130BB00CD20B3
:100AD0007A08A5007908A4007808A3007708A20086
:100AE0002508AD002408AC002308AB002208AA00AA
:100AF000B101B0012030AF008230AE0042297A0847
:100B0000AD007908AC007808AB007708AA00831024
:100B10007A08B1007908B0007808AF007708AE0015
:100B2000B501B401B3018030B2000E2A7A08A900E1
:100B30007908A8007808A7007708A6000C300317EA
:100B40008D0000308F0003100B300313AA008F2B91
:100B5000893084002908AD002808AC002708AB00C4
:100B60002608AA000230AE00342C4330B7006323BD
:0A0B70006430B8001420492D630022
:02400E00733FFE
:00000001FF
;PIC16F877
;CRC=9339  CREATED="29-Ara-21 23:52"
